{
  "_format": "hh-sol-artifact-1",
  "contractName": "LockingV4Router",
  "sourceName": "contracts/LockingV4Router.sol",
  "abi": [
    {
      "inputs": [
        {
          "internalType": "address",
          "name": "_pm",
          "type": "address"
        },
        {
          "internalType": "address",
          "name": "_wars",
          "type": "address"
        },
        {
          "internalType": "address",
          "name": "_usdce",
          "type": "address"
        }
      ],
      "stateMutability": "nonpayable",
      "type": "constructor"
    },
    {
      "anonymous": false,
      "inputs": [
        {
          "indexed": false,
          "internalType": "string",
          "name": "tag",
          "type": "string"
        }
      ],
      "name": "Log",
      "type": "event"
    },
    {
      "anonymous": false,
      "inputs": [
        {
          "indexed": false,
          "internalType": "string",
          "name": "tag",
          "type": "string"
        },
        {
          "indexed": false,
          "internalType": "int256",
          "name": "d0",
          "type": "int256"
        },
        {
          "indexed": false,
          "internalType": "int256",
          "name": "d1",
          "type": "int256"
        }
      ],
      "name": "Log2",
      "type": "event"
    },
    {
      "anonymous": false,
      "inputs": [
        {
          "indexed": false,
          "internalType": "string",
          "name": "tag",
          "type": "string"
        },
        {
          "indexed": false,
          "internalType": "address",
          "name": "token",
          "type": "address"
        },
        {
          "indexed": false,
          "internalType": "uint256",
          "name": "amount",
          "type": "uint256"
        }
      ],
      "name": "LogPay",
      "type": "event"
    },
    {
      "inputs": [],
      "name": "FEE",
      "outputs": [
        {
          "internalType": "uint24",
          "name": "",
          "type": "uint24"
        }
      ],
      "stateMutability": "view",
      "type": "function"
    },
    {
      "inputs": [],
      "name": "HOOKS",
      "outputs": [
        {
          "internalType": "contract IHooks",
          "name": "",
          "type": "address"
        }
      ],
      "stateMutability": "view",
      "type": "function"
    },
    {
      "inputs": [],
      "name": "TICK_SPACING",
      "outputs": [
        {
          "internalType": "int24",
          "name": "",
          "type": "int24"
        }
      ],
      "stateMutability": "view",
      "type": "function"
    },
    {
      "inputs": [],
      "name": "USDCE",
      "outputs": [
        {
          "internalType": "contract IERC20",
          "name": "",
          "type": "address"
        }
      ],
      "stateMutability": "view",
      "type": "function"
    },
    {
      "inputs": [],
      "name": "WARS",
      "outputs": [
        {
          "internalType": "contract IERC20",
          "name": "",
          "type": "address"
        }
      ],
      "stateMutability": "view",
      "type": "function"
    },
    {
      "inputs": [],
      "name": "poolManager",
      "outputs": [
        {
          "internalType": "address",
          "name": "",
          "type": "address"
        }
      ],
      "stateMutability": "view",
      "type": "function"
    },
    {
      "inputs": [
        {
          "internalType": "uint256",
          "name": "amountIn",
          "type": "uint256"
        }
      ],
      "name": "swapExactInWARSForUSDCe",
      "outputs": [
        {
          "internalType": "int256",
          "name": "d0",
          "type": "int256"
        },
        {
          "internalType": "int256",
          "name": "d1",
          "type": "int256"
        }
      ],
      "stateMutability": "nonpayable",
      "type": "function"
    },
    {
      "inputs": [
        {
          "internalType": "bytes",
          "name": "data",
          "type": "bytes"
        }
      ],
      "name": "unlockCallback",
      "outputs": [
        {
          "internalType": "bytes",
          "name": "",
          "type": "bytes"
        }
      ],
      "stateMutability": "nonpayable",
      "type": "function"
    }
  ],
  "bytecode": "0x60e06040523480156200001157600080fd5b5060405162002a3938038062002a39833981810160405281019062000037919062000146565b8273ffffffffffffffffffffffffffffffffffffffff1660808173ffffffffffffffffffffffffffffffffffffffff16815250508173ffffffffffffffffffffffffffffffffffffffff1660a08173ffffffffffffffffffffffffffffffffffffffff16815250508073ffffffffffffffffffffffffffffffffffffffff1660c08173ffffffffffffffffffffffffffffffffffffffff1681525050505050620001a2565b600080fd5b600073ffffffffffffffffffffffffffffffffffffffff82169050919050565b60006200010e82620000e1565b9050919050565b620001208162000101565b81146200012c57600080fd5b50565b600081519050620001408162000115565b92915050565b600080600060608486031215620001625762000161620000dc565b5b600062000172868287016200012f565b935050602062000185868287016200012f565b925050604062000198868287016200012f565b9150509250925092565b60805160a05160c0516127fe6200023b600039600081816101a40152610d490152600081816101cd01528181610c0e01528181610d280152610d8a0152600081816101f3015281816102d70152818161046b0152818161051a015281816105db015281816106be0152818161076d0152818161082e0152818161093901528181610a1d01528181610b280152610fbd01526127fe6000f3fe608060405234801561001057600080fd5b50600436106100885760003560e01c8063c57981b51161005b578063c57981b514610117578063dc4c90d314610135578063dce1561d14610153578063ec9e6a0a1461017157610088565b8063195187e11461008d57806346ca626b146100ab5780635de1cf75146100c957806391dd7346146100e7575b600080fd5b6100956101a2565b6040516100a29190611699565b60405180910390f35b6100b36101c6565b6040516100c091906116d0565b60405180910390f35b6100d16101cb565b6040516100de9190611699565b60405180910390f35b61010160048036038101906100fc9190611764565b6101ef565b60405161010e9190611841565b60405180910390f35b61011f610b20565b60405161012c9190611881565b60405180910390f35b61013d610b26565b60405161014a91906118bd565b60405180910390f35b61015b610b4a565b60405161016891906118f9565b60405180910390f35b61018b6004803603810190610186919061194a565b610b4f565b604051610199929190611990565b60405180910390f35b7f000000000000000000000000000000000000000000000000000000000000000081565b603c81565b7f000000000000000000000000000000000000000000000000000000000000000081565b60607f000000000000000000000000000000000000000000000000000000000000000073ffffffffffffffffffffffffffffffffffffffff163373ffffffffffffffffffffffffffffffffffffffff161461027f576040517f08c379a000000000000000000000000000000000000000000000000000000000815260040161027690611a16565b60405180910390fd5b60008084848101906102919190611d0a565b915091506102d36040518060400160405280600c81526020017f756e6c6f636b2e656e74657200000000000000000000000000000000000000008152506112fa565b60007f000000000000000000000000000000000000000000000000000000000000000073ffffffffffffffffffffffffffffffffffffffff1663f3cd914c84846040518363ffffffff1660e01b8152600401610330929190611e84565b6020604051808303816000875af115801561034f573d6000803e3d6000fd5b505050506040513d601f19601f820116820180604052508101906103739190611eee565b9050600061038082611393565b9050600061038d836113a0565b90506103cd6040518060400160405280601081526020017f61667465722e737761702064302c6431000000000000000000000000000000008152506112fa565b6103d6826113ad565b6103df816113ad565b60008083126103ef5760006103fa565b826103f990611f4a565b5b9050600080831261040c576000610417565b8261041690611f4a565b5b9050600082111561066c576104606040518060400160405280600a81526020017f70617920746f6b656e30000000000000000000000000000000000000000000008152506112fa565b61046982611446565b7f000000000000000000000000000000000000000000000000000000000000000073ffffffffffffffffffffffffffffffffffffffff1663a584119488600001516040518263ffffffff1660e01b81526004016104c691906118bd565b600060405180830381600087803b1580156104e057600080fd5b505af11580156104f4573d6000803e3d6000fd5b50505050866000015173ffffffffffffffffffffffffffffffffffffffff1663a9059cbb7f0000000000000000000000000000000000000000000000000000000000000000846040518363ffffffff1660e01b8152600401610557929190611fa1565b6020604051808303816000875af1158015610576573d6000803e3d6000fd5b505050506040513d601f19601f8201168201806040525081019061059a9190611fdf565b6105d9576040517f08c379a00000000000000000000000000000000000000000000000000000000081526004016105d090612058565b60405180910390fd5b7f000000000000000000000000000000000000000000000000000000000000000073ffffffffffffffffffffffffffffffffffffffff166311da60b46040518163ffffffff1660e01b81526004016020604051808303816000875af1158015610646573d6000803e3d6000fd5b505050506040513d601f19601f8201168201806040525081019061066a919061208d565b505b60008111156108bf576106b36040518060400160405280600a81526020017f70617920746f6b656e31000000000000000000000000000000000000000000008152506112fa565b6106bc81611446565b7f000000000000000000000000000000000000000000000000000000000000000073ffffffffffffffffffffffffffffffffffffffff1663a584119488602001516040518263ffffffff1660e01b815260040161071991906118bd565b600060405180830381600087803b15801561073357600080fd5b505af1158015610747573d6000803e3d6000fd5b50505050866020015173ffffffffffffffffffffffffffffffffffffffff1663a9059cbb7f0000000000000000000000000000000000000000000000000000000000000000836040518363ffffffff1660e01b81526004016107aa929190611fa1565b6020604051808303816000875af11580156107c9573d6000803e3d6000fd5b505050506040513d601f19601f820116820180604052508101906107ed9190611fdf565b61082c576040517f08c379a000000000000000000000000000000000000000000000000000000000815260040161082390612106565b60405180910390fd5b7f000000000000000000000000000000000000000000000000000000000000000073ffffffffffffffffffffffffffffffffffffffff166311da60b46040518163ffffffff1660e01b81526004016020604051808303816000875af1158015610899573d6000803e3d6000fd5b505050506040513d601f19601f820116820180604052508101906108bd919061208d565b505b60008085136108cf5760006108d1565b845b905060008085136108e35760006108e5565b845b905060008211156109cb5761092e6040518060400160405280600b81526020017f74616b6520746f6b656e300000000000000000000000000000000000000000008152506112fa565b61093782611446565b7f000000000000000000000000000000000000000000000000000000000000000073ffffffffffffffffffffffffffffffffffffffff16630b0d9c098a6000015130856040518463ffffffff1660e01b815260040161099893929190612126565b600060405180830381600087803b1580156109b257600080fd5b505af11580156109c6573d6000803e3d6000fd5b505050505b6000811115610aaf57610a126040518060400160405280600b81526020017f74616b6520746f6b656e310000000000000000000000000000000000000000008152506112fa565b610a1b81611446565b7f000000000000000000000000000000000000000000000000000000000000000073ffffffffffffffffffffffffffffffffffffffff16630b0d9c098a6020015130846040518463ffffffff1660e01b8152600401610a7c93929190612126565b600060405180830381600087803b158015610a9657600080fd5b505af1158015610aaa573d6000803e3d6000fd5b505050505b610aed6040518060400160405280600981526020017f6c6f636b2e6578697400000000000000000000000000000000000000000000008152506112fa565b8585604051602001610b00929190611990565b604051602081830303815290604052995050505050505050505092915050565b610bb881565b7f000000000000000000000000000000000000000000000000000000000000000081565b600081565b6000807fcf34ef537ac33ee1ac626ca1587a0a7e8e51561e5514f8cb36afa1c5102b3bab604051610b7f906121a9565b60405180910390a1610bc56040518060400160405280600a81526020017f737761702e7374617274000000000000000000000000000000000000000000008152506112fa565b610bce83611446565b610c0c6040518060400160405280600d81526020017f6265666f72652e756e6c6f636b000000000000000000000000000000000000008152506112fa565b7f000000000000000000000000000000000000000000000000000000000000000073ffffffffffffffffffffffffffffffffffffffff166323b872dd3330866040518463ffffffff1660e01b8152600401610c69939291906121c9565b6020604051808303816000875af1158015610c88573d6000803e3d6000fd5b505050506040513d601f19601f82011682018060405250810190610cac9190611fdf565b610ceb576040517f08c379a0000000000000000000000000000000000000000000000000000000008152600401610ce29061224c565b60405180910390fd5b7fcf34ef537ac33ee1ac626ca1587a0a7e8e51561e5514f8cb36afa1c5102b3bab604051610d18906122b8565b60405180910390a1600080610d6d7f00000000000000000000000000000000000000000000000000000000000000007f00000000000000000000000000000000000000000000000000000000000000006114df565b915091508173ffffffffffffffffffffffffffffffffffffffff167f000000000000000000000000000000000000000000000000000000000000000073ffffffffffffffffffffffffffffffffffffffff1614600260006101000a81548160ff021916908315150217905550336000806101000a81548173ffffffffffffffffffffffffffffffffffffffff021916908373ffffffffffffffffffffffffffffffffffffffff1602179055508460018190555060006040518060a001604052808473ffffffffffffffffffffffffffffffffffffffff1681526020018373ffffffffffffffffffffffffffffffffffffffff168152602001610bb862ffffff168152602001603c60020b8152602001600073ffffffffffffffffffffffffffffffffffffffff16815250905060006040518060600160405280600260009054906101000a900460ff1615158152602001600154610ec990611f4a565b8152602001600260009054906101000a900460ff16610f0857600173fffd8963efd1fc6a506488495d951d5263988d26610f0391906122d8565b610f1b565b60016401000276a3610f1a9190612320565b5b73ffffffffffffffffffffffffffffffffffffffff1681525090507fcf34ef537ac33ee1ac626ca1587a0a7e8e51561e5514f8cb36afa1c5102b3bab604051610f63906123b4565b60405180910390a1610fb96040518060400160405280601a81526020017f6265666f72652e756e6c6f636b2c207a65726f466f724f6e653a000000000000815250600260009054906101000a900460ff1661152e565b60007f000000000000000000000000000000000000000000000000000000000000000073ffffffffffffffffffffffffffffffffffffffff166348c89491848460405160200161100a9291906123d4565b6040516020818303038152906040526040518263ffffffff1660e01b81526004016110359190611841565b6000604051808303816000875af1158015611054573d6000803e3d6000fd5b505050506040513d6000823e3d601f19601f8201168201806040525081019061107d91906124a4565b9050808060200190518101906110939190612502565b80975081985050507f012002f155231ea4ee8338b50e660d0f476fb4ecb91c3babcd8916abd2e6b3e787876040516110cc92919061258e565b60405180910390a16111126040518060400160405280601281526020017f61667465722e756e6c6f636b2064302c643100000000000000000000000000008152506112fa565b61111b876113ad565b611124866113ad565b6000600260009054906101000a900460ff166111405785611142565b845b90506000600260009054906101000a900460ff166111605788611162565b875b9050600081131561128a5760008190507fbd7e5030717697e09c0a2f05f315dceabcd1b74b320dbe0aa96fa1025f636eda83826040516111a3929190612616565b60405180910390a18273ffffffffffffffffffffffffffffffffffffffff1663a9059cbb60008054906101000a900473ffffffffffffffffffffffffffffffffffffffff16836040518363ffffffff1660e01b8152600401611206929190611fa1565b6020604051808303816000875af1158015611225573d6000803e3d6000fd5b505050506040513d601f19601f820116820180604052508101906112499190611fdf565b611288576040517f08c379a000000000000000000000000000000000000000000000000000000000815260040161127f9061269e565b60405180910390fd5b505b60008060006101000a81548173ffffffffffffffffffffffffffffffffffffffff021916908373ffffffffffffffffffffffffffffffffffffffff16021790555060006001819055506000600260006101000a81548160ff02191690831515021790555050505050505050915091565b6113908160405160240161130e9190612702565b6040516020818303038152906040527f41304fac000000000000000000000000000000000000000000000000000000007bffffffffffffffffffffffffffffffffffffffffffffffffffffffff19166020820180517bffffffffffffffffffffffffffffffffffffffffffffffffffffffff83818316178352505050506115ca565b50565b60008160801d9050919050565b600081600f0b9050919050565b611443816040516024016113c19190612724565b6040516020818303038152906040527f2d5b6cb9000000000000000000000000000000000000000000000000000000007bffffffffffffffffffffffffffffffffffffffffffffffffffffffff19166020820180517bffffffffffffffffffffffffffffffffffffffffffffffffffffffff83818316178352505050506115ca565b50565b6114dc8160405160240161145a919061273f565b6040516020818303038152906040527ff82c50f1000000000000000000000000000000000000000000000000000000007bffffffffffffffffffffffffffffffffffffffffffffffffffffffff19166020820180517bffffffffffffffffffffffffffffffffffffffffffffffffffffffff83818316178352505050506115ca565b50565b6000808273ffffffffffffffffffffffffffffffffffffffff168473ffffffffffffffffffffffffffffffffffffffff161061151c57828461151f565b83835b80925081935050509250929050565b6115c68282604051602401611544929190612769565b6040516020818303038152906040527fc3b55635000000000000000000000000000000000000000000000000000000007bffffffffffffffffffffffffffffffffffffffffffffffffffffffff19166020820180517bffffffffffffffffffffffffffffffffffffffffffffffffffffffff83818316178352505050506115ca565b5050565b6115e1816115d96115e4611605565b63ffffffff16565b50565b60006a636f6e736f6c652e6c6f679050600080835160208501845afa505050565b611610819050919050565b611618612799565b565b600073ffffffffffffffffffffffffffffffffffffffff82169050919050565b6000819050919050565b600061165f61165a6116558461161a565b61163a565b61161a565b9050919050565b600061167182611644565b9050919050565b600061168382611666565b9050919050565b61169381611678565b82525050565b60006020820190506116ae600083018461168a565b92915050565b60008160020b9050919050565b6116ca816116b4565b82525050565b60006020820190506116e560008301846116c1565b92915050565b6000604051905090565b600080fd5b600080fd5b600080fd5b600080fd5b600080fd5b60008083601f840112611724576117236116ff565b5b8235905067ffffffffffffffff81111561174157611740611704565b5b60208301915083600182028301111561175d5761175c611709565b5b9250929050565b6000806020838503121561177b5761177a6116f5565b5b600083013567ffffffffffffffff811115611799576117986116fa565b5b6117a58582860161170e565b92509250509250929050565b600081519050919050565b600082825260208201905092915050565b60005b838110156117eb5780820151818401526020810190506117d0565b60008484015250505050565b6000601f19601f8301169050919050565b6000611813826117b1565b61181d81856117bc565b935061182d8185602086016117cd565b611836816117f7565b840191505092915050565b6000602082019050818103600083015261185b8184611808565b905092915050565b600062ffffff82169050919050565b61187b81611863565b82525050565b60006020820190506118966000830184611872565b92915050565b60006118a78261161a565b9050919050565b6118b78161189c565b82525050565b60006020820190506118d260008301846118ae565b92915050565b60006118e382611666565b9050919050565b6118f3816118d8565b82525050565b600060208201905061190e60008301846118ea565b92915050565b6000819050919050565b61192781611914565b811461193257600080fd5b50565b6000813590506119448161191e565b92915050565b6000602082840312156119605761195f6116f5565b5b600061196e84828501611935565b91505092915050565b6000819050919050565b61198a81611977565b82525050565b60006040820190506119a56000830185611981565b6119b26020830184611981565b9392505050565b600082825260208201905092915050565b7f6f6e6c7920504d00000000000000000000000000000000000000000000000000600082015250565b6000611a006007836119b9565b9150611a0b826119ca565b602082019050919050565b60006020820190508181036000830152611a2f816119f3565b9050919050565b600080fd5b7f4e487b7100000000000000000000000000000000000000000000000000000000600052604160045260246000fd5b611a73826117f7565b810181811067ffffffffffffffff82111715611a9257611a91611a3b565b5b80604052505050565b6000611aa56116eb565b9050611ab18282611a6a565b919050565b6000611ac18261189c565b9050919050565b611ad181611ab6565b8114611adc57600080fd5b50565b600081359050611aee81611ac8565b92915050565b611afd81611863565b8114611b0857600080fd5b50565b600081359050611b1a81611af4565b92915050565b611b29816116b4565b8114611b3457600080fd5b50565b600081359050611b4681611b20565b92915050565b6000611b578261189c565b9050919050565b611b6781611b4c565b8114611b7257600080fd5b50565b600081359050611b8481611b5e565b92915050565b600060a08284031215611ba057611b9f611a36565b5b611baa60a0611a9b565b90506000611bba84828501611adf565b6000830152506020611bce84828501611adf565b6020830152506040611be284828501611b0b565b6040830152506060611bf684828501611b37565b6060830152506080611c0a84828501611b75565b60808301525092915050565b60008115159050919050565b611c2b81611c16565b8114611c3657600080fd5b50565b600081359050611c4881611c22565b92915050565b611c5781611977565b8114611c6257600080fd5b50565b600081359050611c7481611c4e565b92915050565b611c838161161a565b8114611c8e57600080fd5b50565b600081359050611ca081611c7a565b92915050565b600060608284031215611cbc57611cbb611a36565b5b611cc66060611a9b565b90506000611cd684828501611c39565b6000830152506020611cea84828501611c65565b6020830152506040611cfe84828501611c91565b60408301525092915050565b6000806101008385031215611d2257611d216116f5565b5b6000611d3085828601611b8a565b92505060a0611d4185828601611ca6565b9150509250929050565b611d5481611678565b82525050565b611d6381611863565b82525050565b611d72816116b4565b82525050565b611d81816118d8565b82525050565b60a082016000820151611d9d6000850182611d4b565b506020820151611db06020850182611d4b565b506040820151611dc36040850182611d5a565b506060820151611dd66060850182611d69565b506080820151611de96080850182611d78565b50505050565b611df881611c16565b82525050565b611e0781611977565b82525050565b611e168161161a565b82525050565b606082016000820151611e326000850182611def565b506020820151611e456020850182611dfe565b506040820151611e586040850182611e0d565b50505050565b50565b6000611e6e6000836117bc565b9150611e7982611e5e565b600082019050919050565b600061012082019050611e9a6000830185611d87565b611ea760a0830184611e1c565b818103610100830152611eb981611e61565b90509392505050565b611ecb81611977565b8114611ed657600080fd5b50565b600081519050611ee881611ec2565b92915050565b600060208284031215611f0457611f036116f5565b5b6000611f1284828501611ed9565b91505092915050565b7f4e487b7100000000000000000000000000000000000000000000000000000000600052601160045260246000fd5b6000611f5582611977565b91507f80000000000000000000000000000000000000000000000000000000000000008203611f8757611f86611f1b565b5b816000039050919050565b611f9b81611914565b82525050565b6000604082019050611fb660008301856118ae565b611fc36020830184611f92565b9392505050565b600081519050611fd981611c22565b92915050565b600060208284031215611ff557611ff46116f5565b5b600061200384828501611fca565b91505092915050565b7f7430207472616e736665722d3e504d206661696c656400000000000000000000600082015250565b60006120426016836119b9565b915061204d8261200c565b602082019050919050565b6000602082019050818103600083015261207181612035565b9050919050565b6000815190506120878161191e565b92915050565b6000602082840312156120a3576120a26116f5565b5b60006120b184828501612078565b91505092915050565b7f7431207472616e736665722d3e504d206661696c656400000000000000000000600082015250565b60006120f06016836119b9565b91506120fb826120ba565b602082019050919050565b6000602082019050818103600083015261211f816120e3565b9050919050565b600060608201905061213b600083018661168a565b61214860208301856118ae565b6121556040830184611f92565b949350505050565b7f737761702e737461727400000000000000000000000000000000000000000000600082015250565b6000612193600a836119b9565b915061219e8261215d565b602082019050919050565b600060208201905081810360008301526121c281612186565b9050919050565b60006060820190506121de60008301866118ae565b6121eb60208301856118ae565b6121f86040830184611f92565b949350505050565b7f7472616e7366657246726f6d2057415253206661696c65640000000000000000600082015250565b60006122366018836119b9565b915061224182612200565b602082019050919050565b6000602082019050818103600083015261226581612229565b9050919050565b7f61667465722e7472616e7366657246726f6d0000000000000000000000000000600082015250565b60006122a26012836119b9565b91506122ad8261226c565b602082019050919050565b600060208201905081810360008301526122d181612295565b9050919050565b60006122e38261161a565b91506122ee8361161a565b9250828203905073ffffffffffffffffffffffffffffffffffffffff81111561231a57612319611f1b565b5b92915050565b600061232b8261161a565b91506123368361161a565b9250828201905073ffffffffffffffffffffffffffffffffffffffff81111561236257612361611f1b565b5b92915050565b7f6265666f72652e756e6c6f636b00000000000000000000000000000000000000600082015250565b600061239e600d836119b9565b91506123a982612368565b602082019050919050565b600060208201905081810360008301526123cd81612391565b9050919050565b6000610100820190506123ea6000830185611d87565b6123f760a0830184611e1c565b9392505050565b600080fd5b600067ffffffffffffffff82111561241e5761241d611a3b565b5b612427826117f7565b9050602081019050919050565b600061244761244284612403565b611a9b565b905082815260208101848484011115612463576124626123fe565b5b61246e8482856117cd565b509392505050565b600082601f83011261248b5761248a6116ff565b5b815161249b848260208601612434565b91505092915050565b6000602082840312156124ba576124b96116f5565b5b600082015167ffffffffffffffff8111156124d8576124d76116fa565b5b6124e484828501612476565b91505092915050565b6000815190506124fc81611c4e565b92915050565b60008060408385031215612519576125186116f5565b5b6000612527858286016124ed565b9250506020612538858286016124ed565b9150509250929050565b7f61667465722e756e6c6f636b0000000000000000000000000000000000000000600082015250565b6000612578600c836119b9565b915061258382612542565b602082019050919050565b600060608201905081810360008301526125a78161256b565b90506125b66020830185611981565b6125c36040830184611981565b9392505050565b7f73656e642e6f7574000000000000000000000000000000000000000000000000600082015250565b60006126006008836119b9565b915061260b826125ca565b602082019050919050565b6000606082019050818103600083015261262f816125f3565b905061263e60208301856118ae565b61264b6040830184611f92565b9392505050565b7f7472616e73666572206f7574206661696c656400000000000000000000000000600082015250565b60006126886013836119b9565b915061269382612652565b602082019050919050565b600060208201905081810360008301526126b78161267b565b9050919050565b600081519050919050565b60006126d4826126be565b6126de81856119b9565b93506126ee8185602086016117cd565b6126f7816117f7565b840191505092915050565b6000602082019050818103600083015261271c81846126c9565b905092915050565b60006020820190506127396000830184611981565b92915050565b60006020820190506127546000830184611f92565b92915050565b61276381611c16565b82525050565b6000604082019050818103600083015261278381856126c9565b9050612792602083018461275a565b9392505050565b7f4e487b7100000000000000000000000000000000000000000000000000000000600052605160045260246000fdfea2646970667358221220b54b44805742e740d7599b7f8f34797bf87f5eedb692d94b022dcb0fcfcc8e0964736f6c63430008180033",
  "linkReferences": {},
  "deployedLinkReferences": {}
}