{
  "_format": "hh-sol-artifact-1",
  "contractName": "LiquidityManagerV4",
  "sourceName": "contracts/LiquidityManagerV4.sol",
  "abi": [
    {
      "inputs": [
        {
          "internalType": "address",
          "name": "_pm",
          "type": "address"
        },
        {
          "internalType": "address",
          "name": "_wars",
          "type": "address"
        },
        {
          "internalType": "address",
          "name": "_usdce",
          "type": "address"
        }
      ],
      "stateMutability": "nonpayable",
      "type": "constructor"
    },
    {
      "anonymous": false,
      "inputs": [
        {
          "indexed": false,
          "internalType": "string",
          "name": "tag",
          "type": "string"
        }
      ],
      "name": "Log",
      "type": "event"
    },
    {
      "anonymous": false,
      "inputs": [
        {
          "indexed": false,
          "internalType": "string",
          "name": "tag",
          "type": "string"
        },
        {
          "indexed": false,
          "internalType": "int256",
          "name": "d0",
          "type": "int256"
        },
        {
          "indexed": false,
          "internalType": "int256",
          "name": "d1",
          "type": "int256"
        }
      ],
      "name": "Log2",
      "type": "event"
    },
    {
      "anonymous": false,
      "inputs": [
        {
          "indexed": false,
          "internalType": "string",
          "name": "which",
          "type": "string"
        },
        {
          "indexed": false,
          "internalType": "uint256",
          "name": "amount",
          "type": "uint256"
        }
      ],
      "name": "Paid",
      "type": "event"
    },
    {
      "anonymous": false,
      "inputs": [
        {
          "indexed": false,
          "internalType": "address",
          "name": "to",
          "type": "address"
        },
        {
          "indexed": false,
          "internalType": "uint256",
          "name": "wars",
          "type": "uint256"
        },
        {
          "indexed": false,
          "internalType": "uint256",
          "name": "usdce",
          "type": "uint256"
        }
      ],
      "name": "Refunded",
      "type": "event"
    },
    {
      "anonymous": false,
      "inputs": [
        {
          "indexed": false,
          "internalType": "string",
          "name": "which",
          "type": "string"
        },
        {
          "indexed": false,
          "internalType": "uint256",
          "name": "amount",
          "type": "uint256"
        }
      ],
      "name": "Taken",
      "type": "event"
    },
    {
      "stateMutability": "nonpayable",
      "type": "fallback"
    },
    {
      "inputs": [],
      "name": "FEE",
      "outputs": [
        {
          "internalType": "uint24",
          "name": "",
          "type": "uint24"
        }
      ],
      "stateMutability": "view",
      "type": "function"
    },
    {
      "inputs": [],
      "name": "HOOKS",
      "outputs": [
        {
          "internalType": "contract IHooks",
          "name": "",
          "type": "address"
        }
      ],
      "stateMutability": "view",
      "type": "function"
    },
    {
      "inputs": [],
      "name": "TICK_SPACING",
      "outputs": [
        {
          "internalType": "int24",
          "name": "",
          "type": "int24"
        }
      ],
      "stateMutability": "view",
      "type": "function"
    },
    {
      "inputs": [],
      "name": "USDCE",
      "outputs": [
        {
          "internalType": "contract IERC20",
          "name": "",
          "type": "address"
        }
      ],
      "stateMutability": "view",
      "type": "function"
    },
    {
      "inputs": [],
      "name": "WARS",
      "outputs": [
        {
          "internalType": "contract IERC20",
          "name": "",
          "type": "address"
        }
      ],
      "stateMutability": "view",
      "type": "function"
    },
    {
      "inputs": [
        {
          "internalType": "int24",
          "name": "tickLower",
          "type": "int24"
        },
        {
          "internalType": "int24",
          "name": "tickUpper",
          "type": "int24"
        },
        {
          "internalType": "int128",
          "name": "liquidityDelta",
          "type": "int128"
        },
        {
          "internalType": "uint256",
          "name": "warsMax",
          "type": "uint256"
        },
        {
          "internalType": "uint256",
          "name": "usdceMax",
          "type": "uint256"
        },
        {
          "internalType": "bytes32",
          "name": "salt",
          "type": "bytes32"
        }
      ],
      "name": "addLiquidity",
      "outputs": [
        {
          "internalType": "int256",
          "name": "d0",
          "type": "int256"
        },
        {
          "internalType": "int256",
          "name": "d1",
          "type": "int256"
        }
      ],
      "stateMutability": "nonpayable",
      "type": "function"
    },
    {
      "inputs": [
        {
          "internalType": "bytes",
          "name": "data",
          "type": "bytes"
        }
      ],
      "name": "lockAcquired",
      "outputs": [
        {
          "internalType": "bytes",
          "name": "",
          "type": "bytes"
        }
      ],
      "stateMutability": "nonpayable",
      "type": "function"
    },
    {
      "inputs": [],
      "name": "poolManager",
      "outputs": [
        {
          "internalType": "address",
          "name": "",
          "type": "address"
        }
      ],
      "stateMutability": "view",
      "type": "function"
    },
    {
      "inputs": [
        {
          "internalType": "int24",
          "name": "tickLower",
          "type": "int24"
        },
        {
          "internalType": "int24",
          "name": "tickUpper",
          "type": "int24"
        },
        {
          "internalType": "int128",
          "name": "liquidityDelta",
          "type": "int128"
        },
        {
          "internalType": "bytes32",
          "name": "salt",
          "type": "bytes32"
        }
      ],
      "name": "removeLiquidity",
      "outputs": [
        {
          "internalType": "int256",
          "name": "d0",
          "type": "int256"
        },
        {
          "internalType": "int256",
          "name": "d1",
          "type": "int256"
        }
      ],
      "stateMutability": "nonpayable",
      "type": "function"
    },
    {
      "inputs": [
        {
          "internalType": "bytes",
          "name": "data",
          "type": "bytes"
        }
      ],
      "name": "unlockCallback",
      "outputs": [
        {
          "internalType": "bytes",
          "name": "",
          "type": "bytes"
        }
      ],
      "stateMutability": "nonpayable",
      "type": "function"
    }
  ],
  "bytecode": "0x60e06040523480156200001157600080fd5b5060405162003ff738038062003ff7833981810160405281019062000037919062000146565b8273ffffffffffffffffffffffffffffffffffffffff1660808173ffffffffffffffffffffffffffffffffffffffff16815250508173ffffffffffffffffffffffffffffffffffffffff1660a08173ffffffffffffffffffffffffffffffffffffffff16815250508073ffffffffffffffffffffffffffffffffffffffff1660c08173ffffffffffffffffffffffffffffffffffffffff1681525050505050620001a2565b600080fd5b600073ffffffffffffffffffffffffffffffffffffffff82169050919050565b60006200010e82620000e1565b9050919050565b620001208162000101565b81146200012c57600080fd5b50565b600081519050620001408162000115565b92915050565b600080600060608486031215620001625762000161620000dc565b5b600062000172868287016200012f565b935050602062000185868287016200012f565b925050604062000198868287016200012f565b9150509250925092565b60805160a05160c051613d7d6200027a6000396000818161064001528181610bb301528181610d630152818161101a01528181611e9501528181612045015261242001526000818161055701528181610b1501528181610c580152818161104301528181611df701528181611f3a01526123ff015260008181610a330152818161106901528181611144015281816112d5015281816113840152818161144501528181611527015281816115d601528181611697015281816117700152818161184a01528181611d1501526123ae0152613d7d6000f3fe608060405234801561001057600080fd5b50600436106100a25760003560e01c8063a0824b1911610066578063a0824b19146101e5578063ab6291fe14610216578063c57981b514610246578063dc4c90d314610264578063dce1561d14610282576100a3565b8063113aa6f41461012a578063195187e11461015b57806346ca626b146101795780635de1cf751461019757806391dd7346146101b5576100a3565b5b60003660606100e66040518060400160405280600f81526020017f66616c6c6261636b2063616c6c656400000000000000000000000000000000008152506102a0565b6100ef33610339565b6040517f08c379a0000000000000000000000000000000000000000000000000000000008152600401610121906126d2565b60405180910390fd5b610144600480360381019061013f91906127e4565b6103d2565b60405161015292919061288a565b60405180910390f35b610163611018565b6040516101709190612932565b60405180910390f35b61018161103c565b60405161018e919061295c565b60405180910390f35b61019f611041565b6040516101ac9190612932565b60405180910390f35b6101cf60048036038101906101ca91906129dc565b611065565b6040516101dc9190612ab9565b60405180910390f35b6101ff60048036038101906101fa9190612adb565b611941565b60405161020d92919061288a565b60405180910390f35b610230600480360381019061022b91906129dc565b6122f8565b60405161023d9190612ab9565b60405180910390f35b61024e6123a6565b60405161025b9190612b60565b60405180910390f35b61026c6123ac565b6040516102799190612b9c565b60405180910390f35b61028a6123d0565b6040516102979190612bd8565b60405180910390f35b610336816040516024016102b49190612c37565b6040516020818303038152906040527f41304fac000000000000000000000000000000000000000000000000000000007bffffffffffffffffffffffffffffffffffffffffffffffffffffffff19166020820180517bffffffffffffffffffffffffffffffffffffffffffffffffffffffff83818316178352505050506123d5565b50565b6103cf8160405160240161034d9190612b9c565b6040516020818303038152906040527f2c2ecbc2000000000000000000000000000000000000000000000000000000007bffffffffffffffffffffffffffffffffffffffffffffffffffffffff19166020820180517bffffffffffffffffffffffffffffffffffffffffffffffffffffffff83818316178352505050506123d5565b50565b600080600086600f0b1361041b576040517f08c379a000000000000000000000000000000000000000000000000000000000815260040161041290612ca5565b60405180910390fd5b8660020b8860020b12610463576040517f08c379a000000000000000000000000000000000000000000000000000000000815260040161045a90612d11565b60405180910390fd5b6000603c896104729190612d60565b60020b14801561049157506000603c8861048c9190612d60565b60020b145b6104d0576040517f08c379a00000000000000000000000000000000000000000000000000000000081526004016104c790612ddd565b60405180910390fd5b61050e6040518060400160405280600981526020017f6164642e737461727400000000000000000000000000000000000000000000008152506102a0565b61054c6040518060400160405280600c81526020017f70756c6c206275646765747300000000000000000000000000000000000000008152506102a0565b6000851115610635577f000000000000000000000000000000000000000000000000000000000000000073ffffffffffffffffffffffffffffffffffffffff166323b872dd3330886040518463ffffffff1660e01b81526004016105b293929190612e0c565b6020604051808303816000875af11580156105d1573d6000803e3d6000fd5b505050506040513d601f19601f820116820180604052508101906105f59190612e7b565b610634576040517f08c379a000000000000000000000000000000000000000000000000000000000815260040161062b90612ef4565b60405180910390fd5b5b600084111561071e577f000000000000000000000000000000000000000000000000000000000000000073ffffffffffffffffffffffffffffffffffffffff166323b872dd3330876040518463ffffffff1660e01b815260040161069b93929190612e0c565b6020604051808303816000875af11580156106ba573d6000803e3d6000fd5b505050506040513d601f19601f820116820180604052508101906106de9190612e7b565b61071d576040517f08c379a000000000000000000000000000000000000000000000000000000000815260040161071490612f60565b60405180910390fd5b5b60006107286123ef565b9050600060405180608001604052808b60020b81526020018a60020b815260200189600f0b815260200186815250905060405180608001604052806001600281111561077757610776612f80565b5b81526020013373ffffffffffffffffffffffffffffffffffffffff168152602001838152602001828152506000808201518160000160006101000a81548160ff021916908360028111156107ce576107cd612f80565b5b021790555060208201518160000160016101000a81548173ffffffffffffffffffffffffffffffffffffffff021916908373ffffffffffffffffffffffffffffffffffffffff16021790555060408201518160010160008201518160000160006101000a81548173ffffffffffffffffffffffffffffffffffffffff021916908373ffffffffffffffffffffffffffffffffffffffff16021790555060208201518160010160006101000a81548173ffffffffffffffffffffffffffffffffffffffff021916908373ffffffffffffffffffffffffffffffffffffffff16021790555060408201518160010160146101000a81548162ffffff021916908362ffffff16021790555060608201518160010160176101000a81548162ffffff021916908360020b62ffffff16021790555060808201518160020160006101000a81548173ffffffffffffffffffffffffffffffffffffffff021916908373ffffffffffffffffffffffffffffffffffffffff160217905550505060608201518160040160008201518160000160006101000a81548162ffffff021916908360020b62ffffff16021790555060208201518160000160036101000a81548162ffffff021916908360020b62ffffff16021790555060408201518160000160066101000a8154816fffffffffffffffffffffffffffffffff0219169083600f0b6fffffffffffffffffffffffffffffffff160217905550606082015181600101555050905050610a2f6040518060400160405280600d81526020017f6265666f72652e756e6c6f636b000000000000000000000000000000000000008152506102a0565b60007f000000000000000000000000000000000000000000000000000000000000000073ffffffffffffffffffffffffffffffffffffffff1663815483198484604051602001610a809291906130c6565b6040516020818303038152906040526040518263ffffffff1660e01b8152600401610aab9190612ab9565b6000604051808303816000875af1158015610aca573d6000803e3d6000fd5b505050506040513d6000823e3d601f19601f82011682018060405250810190610af39190613211565b905080806020019051810190610b099190613286565b809550819650505060007f000000000000000000000000000000000000000000000000000000000000000073ffffffffffffffffffffffffffffffffffffffff166370a08231306040518263ffffffff1660e01b8152600401610b6c9190612b9c565b602060405180830381865afa158015610b89573d6000803e3d6000fd5b505050506040513d601f19601f82011682018060405250810190610bad91906132db565b905060007f000000000000000000000000000000000000000000000000000000000000000073ffffffffffffffffffffffffffffffffffffffff166370a08231306040518263ffffffff1660e01b8152600401610c0a9190612b9c565b602060405180830381865afa158015610c27573d6000803e3d6000fd5b505050506040513d601f19601f82011682018060405250810190610c4b91906132db565b90506000821115610d58577f000000000000000000000000000000000000000000000000000000000000000073ffffffffffffffffffffffffffffffffffffffff1663a9059cbb6000800160019054906101000a900473ffffffffffffffffffffffffffffffffffffffff16846040518363ffffffff1660e01b8152600401610cd5929190613308565b6020604051808303816000875af1158015610cf4573d6000803e3d6000fd5b505050506040513d601f19601f82011682018060405250810190610d189190612e7b565b610d57576040517f08c379a0000000000000000000000000000000000000000000000000000000008152600401610d4e9061337d565b60405180910390fd5b5b6000811115610e63577f000000000000000000000000000000000000000000000000000000000000000073ffffffffffffffffffffffffffffffffffffffff1663a9059cbb6000800160019054906101000a900473ffffffffffffffffffffffffffffffffffffffff16836040518363ffffffff1660e01b8152600401610de0929190613308565b6020604051808303816000875af1158015610dff573d6000803e3d6000fd5b505050506040513d601f19601f82011682018060405250810190610e239190612e7b565b610e62576040517f08c379a0000000000000000000000000000000000000000000000000000000008152600401610e59906133e9565b60405180910390fd5b5b7f2dc8e290002f06fc0085bbca9dfb8b415cf4d1178950c72ff9ee8f4d8878ee666000800160019054906101000a900473ffffffffffffffffffffffffffffffffffffffff168383604051610eba93929190613409565b60405180910390a16000806000820160006101000a81549060ff02191690556000820160016101000a81549073ffffffffffffffffffffffffffffffffffffffff021916905560018201600080820160006101000a81549073ffffffffffffffffffffffffffffffffffffffff02191690556001820160006101000a81549073ffffffffffffffffffffffffffffffffffffffff02191690556001820160146101000a81549062ffffff02191690556001820160176101000a81549062ffffff02191690556002820160006101000a81549073ffffffffffffffffffffffffffffffffffffffff0219169055505060048201600080820160006101000a81549062ffffff02191690556000820160036101000a81549062ffffff02191690556000820160066101000a8154906fffffffffffffffffffffffffffffffff02191690556001820160009055505050505050505050965096945050505050565b7f000000000000000000000000000000000000000000000000000000000000000081565b603c81565b7f000000000000000000000000000000000000000000000000000000000000000081565b60607f000000000000000000000000000000000000000000000000000000000000000073ffffffffffffffffffffffffffffffffffffffff163373ffffffffffffffffffffffffffffffffffffffff16146110f5576040517f08c379a00000000000000000000000000000000000000000000000000000000081526004016110ec9061348c565b60405180910390fd5b7fcf34ef537ac33ee1ac626ca1587a0a7e8e51561e5514f8cb36afa1c5102b3bab604051611122906134f8565b60405180910390a1600080848481019061113c91906136c9565b9150915060007f000000000000000000000000000000000000000000000000000000000000000073ffffffffffffffffffffffffffffffffffffffff16637f10587184846040518363ffffffff1660e01b815260040161119d929190613730565b6020604051808303816000875af11580156111bc573d6000803e3d6000fd5b505050506040513d601f19601f820116820180604052508101906111e0919061379a565b905060006111ed826124c4565b905060006111fa836124d1565b90507f012002f155231ea4ee8338b50e660d0f476fb4ecb91c3babcd8916abd2e6b3e7828260405161122d929190613813565b60405180910390a16112736040518060400160405280601281526020017f61667465722e6d6f646966792064302c643100000000000000000000000000008152506102a0565b61127c826124de565b611285816124de565b60008212156114d75760008261129a9061387e565b90507f66885ebda71e7c88d436b829702409fdac814bd578324657df72ae5b4f244ec2816040516112cb9190613912565b60405180910390a17f000000000000000000000000000000000000000000000000000000000000000073ffffffffffffffffffffffffffffffffffffffff1663a584119487600001516040518263ffffffff1660e01b81526004016113309190612b9c565b600060405180830381600087803b15801561134a57600080fd5b505af115801561135e573d6000803e3d6000fd5b50505050856000015173ffffffffffffffffffffffffffffffffffffffff1663a9059cbb7f0000000000000000000000000000000000000000000000000000000000000000836040518363ffffffff1660e01b81526004016113c1929190613308565b6020604051808303816000875af11580156113e0573d6000803e3d6000fd5b505050506040513d601f19601f820116820180604052508101906114049190612e7b565b611443576040517f08c379a000000000000000000000000000000000000000000000000000000000815260040161143a9061398c565b60405180910390fd5b7f000000000000000000000000000000000000000000000000000000000000000073ffffffffffffffffffffffffffffffffffffffff166311da60b46040518163ffffffff1660e01b81526004016020604051808303816000875af11580156114b0573d6000803e3d6000fd5b505050506040513d601f19601f820116820180604052508101906114d491906132db565b50505b6000811215611729576000816114ec9061387e565b90507f66885ebda71e7c88d436b829702409fdac814bd578324657df72ae5b4f244ec28160405161151d91906139f8565b60405180910390a17f000000000000000000000000000000000000000000000000000000000000000073ffffffffffffffffffffffffffffffffffffffff1663a584119487602001516040518263ffffffff1660e01b81526004016115829190612b9c565b600060405180830381600087803b15801561159c57600080fd5b505af11580156115b0573d6000803e3d6000fd5b50505050856020015173ffffffffffffffffffffffffffffffffffffffff1663a9059cbb7f0000000000000000000000000000000000000000000000000000000000000000836040518363ffffffff1660e01b8152600401611613929190613308565b6020604051808303816000875af1158015611632573d6000803e3d6000fd5b505050506040513d601f19601f820116820180604052508101906116569190612e7b565b611695576040517f08c379a000000000000000000000000000000000000000000000000000000000815260040161168c90613a72565b60405180910390fd5b7f000000000000000000000000000000000000000000000000000000000000000073ffffffffffffffffffffffffffffffffffffffff166311da60b46040518163ffffffff1660e01b81526004016020604051808303816000875af1158015611702573d6000803e3d6000fd5b505050506040513d601f19601f8201168201806040525081019061172691906132db565b50505b60008213156118035760008290507f5b29d5e2daa3a4d6dec210993ff1cd2e565fcf9a4c52e6afb0111fb334cc4869816040516117669190613912565b60405180910390a17f000000000000000000000000000000000000000000000000000000000000000073ffffffffffffffffffffffffffffffffffffffff16630b0d9c09876000015130846040518463ffffffff1660e01b81526004016117cf93929190613a92565b600060405180830381600087803b1580156117e957600080fd5b505af11580156117fd573d6000803e3d6000fd5b50505050505b60008113156118dd5760008190507f5b29d5e2daa3a4d6dec210993ff1cd2e565fcf9a4c52e6afb0111fb334cc48698160405161184091906139f8565b60405180910390a17f000000000000000000000000000000000000000000000000000000000000000073ffffffffffffffffffffffffffffffffffffffff16630b0d9c09876020015130846040518463ffffffff1660e01b81526004016118a993929190613a92565b600060405180830381600087803b1580156118c357600080fd5b505af11580156118d7573d6000803e3d6000fd5b50505050505b7fcf34ef537ac33ee1ac626ca1587a0a7e8e51561e5514f8cb36afa1c5102b3bab60405161190a90613b15565b60405180910390a1818160405160200161192592919061288a565b6040516020818303038152906040529550505050505092915050565b600080600084600f0b1261198a576040517f08c379a000000000000000000000000000000000000000000000000000000000815260040161198190613b81565b60405180910390fd5b8460020b8660020b126119d2576040517f08c379a00000000000000000000000000000000000000000000000000000000081526004016119c990612d11565b60405180910390fd5b6000603c876119e19190612d60565b60020b148015611a0057506000603c866119fb9190612d60565b60020b145b611a3f576040517f08c379a0000000000000000000000000000000000000000000000000000000008152600401611a3690612ddd565b60405180910390fd5b6000611a496123ef565b9050600060405180608001604052808960020b81526020018860020b815260200187600f0b81526020018681525090506040518060800160405280600280811115611a9757611a96612f80565b5b81526020013373ffffffffffffffffffffffffffffffffffffffff168152602001838152602001828152506000808201518160000160006101000a81548160ff02191690836002811115611aee57611aed612f80565b5b021790555060208201518160000160016101000a81548173ffffffffffffffffffffffffffffffffffffffff021916908373ffffffffffffffffffffffffffffffffffffffff16021790555060408201518160010160008201518160000160006101000a81548173ffffffffffffffffffffffffffffffffffffffff021916908373ffffffffffffffffffffffffffffffffffffffff16021790555060208201518160010160006101000a81548173ffffffffffffffffffffffffffffffffffffffff021916908373ffffffffffffffffffffffffffffffffffffffff16021790555060408201518160010160146101000a81548162ffffff021916908362ffffff16021790555060608201518160010160176101000a81548162ffffff021916908360020b62ffffff16021790555060808201518160020160006101000a81548173ffffffffffffffffffffffffffffffffffffffff021916908373ffffffffffffffffffffffffffffffffffffffff160217905550505060608201518160040160008201518160000160006101000a81548162ffffff021916908360020b62ffffff16021790555060208201518160000160036101000a81548162ffffff021916908360020b62ffffff16021790555060408201518160000160066101000a8154816fffffffffffffffffffffffffffffffff0219169083600f0b6fffffffffffffffffffffffffffffffff16021790555060608201518160010155505090505060007f000000000000000000000000000000000000000000000000000000000000000073ffffffffffffffffffffffffffffffffffffffff1663815483198484604051602001611d629291906130c6565b6040516020818303038152906040526040518263ffffffff1660e01b8152600401611d8d9190612ab9565b6000604051808303816000875af1158015611dac573d6000803e3d6000fd5b505050506040513d6000823e3d601f19601f82011682018060405250810190611dd59190613211565b905080806020019051810190611deb9190613286565b809550819650505060007f000000000000000000000000000000000000000000000000000000000000000073ffffffffffffffffffffffffffffffffffffffff166370a08231306040518263ffffffff1660e01b8152600401611e4e9190612b9c565b602060405180830381865afa158015611e6b573d6000803e3d6000fd5b505050506040513d601f19601f82011682018060405250810190611e8f91906132db565b905060007f000000000000000000000000000000000000000000000000000000000000000073ffffffffffffffffffffffffffffffffffffffff166370a08231306040518263ffffffff1660e01b8152600401611eec9190612b9c565b602060405180830381865afa158015611f09573d6000803e3d6000fd5b505050506040513d601f19601f82011682018060405250810190611f2d91906132db565b9050600082111561203a577f000000000000000000000000000000000000000000000000000000000000000073ffffffffffffffffffffffffffffffffffffffff1663a9059cbb6000800160019054906101000a900473ffffffffffffffffffffffffffffffffffffffff16846040518363ffffffff1660e01b8152600401611fb7929190613308565b6020604051808303816000875af1158015611fd6573d6000803e3d6000fd5b505050506040513d601f19601f82011682018060405250810190611ffa9190612e7b565b612039576040517f08c379a000000000000000000000000000000000000000000000000000000000815260040161203090613bed565b60405180910390fd5b5b6000811115612145577f000000000000000000000000000000000000000000000000000000000000000073ffffffffffffffffffffffffffffffffffffffff1663a9059cbb6000800160019054906101000a900473ffffffffffffffffffffffffffffffffffffffff16836040518363ffffffff1660e01b81526004016120c2929190613308565b6020604051808303816000875af11580156120e1573d6000803e3d6000fd5b505050506040513d601f19601f820116820180604052508101906121059190612e7b565b612144576040517f08c379a000000000000000000000000000000000000000000000000000000000815260040161213b90613c59565b60405180910390fd5b5b7f2dc8e290002f06fc0085bbca9dfb8b415cf4d1178950c72ff9ee8f4d8878ee666000800160019054906101000a900473ffffffffffffffffffffffffffffffffffffffff16838360405161219c93929190613409565b60405180910390a16000806000820160006101000a81549060ff02191690556000820160016101000a81549073ffffffffffffffffffffffffffffffffffffffff021916905560018201600080820160006101000a81549073ffffffffffffffffffffffffffffffffffffffff02191690556001820160006101000a81549073ffffffffffffffffffffffffffffffffffffffff02191690556001820160146101000a81549062ffffff02191690556001820160176101000a81549062ffffff02191690556002820160006101000a81549073ffffffffffffffffffffffffffffffffffffffff0219169055505060048201600080820160006101000a81549062ffffff02191690556000820160036101000a81549062ffffff02191690556000820160066101000a8154906fffffffffffffffffffffffffffffffff0219169055600182016000905550505050505050505094509492505050565b606061231b604051806060016040528060248152602001613d24602491396102a0565b3073ffffffffffffffffffffffffffffffffffffffff166391dd734684846040518363ffffffff1660e01b8152600401612356929190613cb5565b6000604051808303816000875af1158015612375573d6000803e3d6000fd5b505050506040513d6000823e3d601f19601f8201168201806040525081019061239e9190613211565b905092915050565b610bb881565b7f000000000000000000000000000000000000000000000000000000000000000081565b600081565b6123ec816123e4612577612598565b63ffffffff16565b50565b6123f76125f2565b6000806124447f00000000000000000000000000000000000000000000000000000000000000007f00000000000000000000000000000000000000000000000000000000000000006125a3565b915091506040518060a001604052808373ffffffffffffffffffffffffffffffffffffffff1681526020018273ffffffffffffffffffffffffffffffffffffffff168152602001610bb862ffffff168152602001603c60020b8152602001600073ffffffffffffffffffffffffffffffffffffffff168152509250505090565b60008160801d9050919050565b600081600f0b9050919050565b612574816040516024016124f29190613cd9565b6040516020818303038152906040527f2d5b6cb9000000000000000000000000000000000000000000000000000000007bffffffffffffffffffffffffffffffffffffffffffffffffffffffff19166020820180517bffffffffffffffffffffffffffffffffffffffffffffffffffffffff83818316178352505050506123d5565b50565b60006a636f6e736f6c652e6c6f679050600080835160208501845afa505050565b61266b819050919050565b6000808273ffffffffffffffffffffffffffffffffffffffff168473ffffffffffffffffffffffffffffffffffffffff16106125e05782846125e3565b83835b80925081935050509250929050565b6040518060a00160405280600073ffffffffffffffffffffffffffffffffffffffff168152602001600073ffffffffffffffffffffffffffffffffffffffff168152602001600062ffffff168152602001600060020b8152602001600073ffffffffffffffffffffffffffffffffffffffff1681525090565b612673613cf4565b565b600082825260208201905092915050565b7f6e6f20737563682066756e6374696f6e00000000000000000000000000000000600082015250565b60006126bc601083612675565b91506126c782612686565b602082019050919050565b600060208201905081810360008301526126eb816126af565b9050919050565b6000604051905090565b600080fd5b600080fd5b60008160020b9050919050565b61271c81612706565b811461272757600080fd5b50565b60008135905061273981612713565b92915050565b600081600f0b9050919050565b6127558161273f565b811461276057600080fd5b50565b6000813590506127728161274c565b92915050565b6000819050919050565b61278b81612778565b811461279657600080fd5b50565b6000813590506127a881612782565b92915050565b6000819050919050565b6127c1816127ae565b81146127cc57600080fd5b50565b6000813590506127de816127b8565b92915050565b60008060008060008060c08789031215612801576128006126fc565b5b600061280f89828a0161272a565b965050602061282089828a0161272a565b955050604061283189828a01612763565b945050606061284289828a01612799565b935050608061285389828a01612799565b92505060a061286489828a016127cf565b9150509295509295509295565b6000819050919050565b61288481612871565b82525050565b600060408201905061289f600083018561287b565b6128ac602083018461287b565b9392505050565b600073ffffffffffffffffffffffffffffffffffffffff82169050919050565b6000819050919050565b60006128f86128f36128ee846128b3565b6128d3565b6128b3565b9050919050565b600061290a826128dd565b9050919050565b600061291c826128ff565b9050919050565b61292c81612911565b82525050565b60006020820190506129476000830184612923565b92915050565b61295681612706565b82525050565b6000602082019050612971600083018461294d565b92915050565b600080fd5b600080fd5b600080fd5b60008083601f84011261299c5761299b612977565b5b8235905067ffffffffffffffff8111156129b9576129b861297c565b5b6020830191508360018202830111156129d5576129d4612981565b5b9250929050565b600080602083850312156129f3576129f26126fc565b5b600083013567ffffffffffffffff811115612a1157612a10612701565b5b612a1d85828601612986565b92509250509250929050565b600081519050919050565b600082825260208201905092915050565b60005b83811015612a63578082015181840152602081019050612a48565b60008484015250505050565b6000601f19601f8301169050919050565b6000612a8b82612a29565b612a958185612a34565b9350612aa5818560208601612a45565b612aae81612a6f565b840191505092915050565b60006020820190508181036000830152612ad38184612a80565b905092915050565b60008060008060808587031215612af557612af46126fc565b5b6000612b038782880161272a565b9450506020612b148782880161272a565b9350506040612b2587828801612763565b9250506060612b36878288016127cf565b91505092959194509250565b600062ffffff82169050919050565b612b5a81612b42565b82525050565b6000602082019050612b756000830184612b51565b92915050565b6000612b86826128b3565b9050919050565b612b9681612b7b565b82525050565b6000602082019050612bb16000830184612b8d565b92915050565b6000612bc2826128ff565b9050919050565b612bd281612bb7565b82525050565b6000602082019050612bed6000830184612bc9565b92915050565b600081519050919050565b6000612c0982612bf3565b612c138185612675565b9350612c23818560208601612a45565b612c2c81612a6f565b840191505092915050565b60006020820190508181036000830152612c518184612bfe565b905092915050565b7f6c697175696469747944656c7461206d757374206265203e2030000000000000600082015250565b6000612c8f601a83612675565b9150612c9a82612c59565b602082019050919050565b60006020820190508181036000830152612cbe81612c82565b9050919050565b7f626164207469636b730000000000000000000000000000000000000000000000600082015250565b6000612cfb600983612675565b9150612d0682612cc5565b602082019050919050565b60006020820190508181036000830152612d2a81612cee565b9050919050565b7f4e487b7100000000000000000000000000000000000000000000000000000000600052601260045260246000fd5b6000612d6b82612706565b9150612d7683612706565b925082612d8657612d85612d31565b5b828207905092915050565b7f7469636b73206e6f74206d756c7469706c650000000000000000000000000000600082015250565b6000612dc7601283612675565b9150612dd282612d91565b602082019050919050565b60006020820190508181036000830152612df681612dba565b9050919050565b612e0681612778565b82525050565b6000606082019050612e216000830186612b8d565b612e2e6020830185612b8d565b612e3b6040830184612dfd565b949350505050565b60008115159050919050565b612e5881612e43565b8114612e6357600080fd5b50565b600081519050612e7581612e4f565b92915050565b600060208284031215612e9157612e906126fc565b5b6000612e9f84828501612e66565b91505092915050565b7f7466205741525300000000000000000000000000000000000000000000000000600082015250565b6000612ede600783612675565b9150612ee982612ea8565b602082019050919050565b60006020820190508181036000830152612f0d81612ed1565b9050919050565b7f7466205553444365000000000000000000000000000000000000000000000000600082015250565b6000612f4a600883612675565b9150612f5582612f14565b602082019050919050565b60006020820190508181036000830152612f7981612f3d565b9050919050565b7f4e487b7100000000000000000000000000000000000000000000000000000000600052602160045260246000fd5b612fb881612911565b82525050565b612fc781612b42565b82525050565b612fd681612706565b82525050565b612fe581612bb7565b82525050565b60a0820160008201516130016000850182612faf565b5060208201516130146020850182612faf565b5060408201516130276040850182612fbe565b50606082015161303a6060850182612fcd565b50608082015161304d6080850182612fdc565b50505050565b61305c8161273f565b82525050565b61306b816127ae565b82525050565b6080820160008201516130876000850182612fcd565b50602082015161309a6020850182612fcd565b5060408201516130ad6040850182613053565b5060608201516130c06060850182613062565b50505050565b6000610120820190506130dc6000830185612feb565b6130e960a0830184613071565b9392505050565b600080fd5b7f4e487b7100000000000000000000000000000000000000000000000000000000600052604160045260246000fd5b61312d82612a6f565b810181811067ffffffffffffffff8211171561314c5761314b6130f5565b5b80604052505050565b600061315f6126f2565b905061316b8282613124565b919050565b600067ffffffffffffffff82111561318b5761318a6130f5565b5b61319482612a6f565b9050602081019050919050565b60006131b46131af84613170565b613155565b9050828152602081018484840111156131d0576131cf6130f0565b5b6131db848285612a45565b509392505050565b600082601f8301126131f8576131f7612977565b5b81516132088482602086016131a1565b91505092915050565b600060208284031215613227576132266126fc565b5b600082015167ffffffffffffffff81111561324557613244612701565b5b613251848285016131e3565b91505092915050565b61326381612871565b811461326e57600080fd5b50565b6000815190506132808161325a565b92915050565b6000806040838503121561329d5761329c6126fc565b5b60006132ab85828601613271565b92505060206132bc85828601613271565b9150509250929050565b6000815190506132d581612782565b92915050565b6000602082840312156132f1576132f06126fc565b5b60006132ff848285016132c6565b91505092915050565b600060408201905061331d6000830185612b8d565b61332a6020830184612dfd565b9392505050565b7f726566756e642057415253000000000000000000000000000000000000000000600082015250565b6000613367600b83612675565b915061337282613331565b602082019050919050565b600060208201905081810360008301526133968161335a565b9050919050565b7f726566756e642055534443650000000000000000000000000000000000000000600082015250565b60006133d3600c83612675565b91506133de8261339d565b602082019050919050565b60006020820190508181036000830152613402816133c6565b9050919050565b600060608201905061341e6000830186612b8d565b61342b6020830185612dfd565b6134386040830184612dfd565b949350505050565b7f6f6e6c7920504d00000000000000000000000000000000000000000000000000600082015250565b6000613476600783612675565b915061348182613440565b602082019050919050565b600060208201905081810360008301526134a581613469565b9050919050565b7f756e6c6f636b2e656e7465720000000000000000000000000000000000000000600082015250565b60006134e2600c83612675565b91506134ed826134ac565b602082019050919050565b60006020820190508181036000830152613511816134d5565b9050919050565b600080fd5b600061352882612b7b565b9050919050565b6135388161351d565b811461354357600080fd5b50565b6000813590506135558161352f565b92915050565b61356481612b42565b811461356f57600080fd5b50565b6000813590506135818161355b565b92915050565b600061359282612b7b565b9050919050565b6135a281613587565b81146135ad57600080fd5b50565b6000813590506135bf81613599565b92915050565b600060a082840312156135db576135da613518565b5b6135e560a0613155565b905060006135f584828501613546565b600083015250602061360984828501613546565b602083015250604061361d84828501613572565b60408301525060606136318482850161272a565b6060830152506080613645848285016135b0565b60808301525092915050565b60006080828403121561366757613666613518565b5b6136716080613155565b905060006136818482850161272a565b60008301525060206136958482850161272a565b60208301525060406136a984828501612763565b60408301525060606136bd848285016127cf565b60608301525092915050565b60008061012083850312156136e1576136e06126fc565b5b60006136ef858286016135c5565b92505060a061370085828601613651565b9150509250929050565b50565b600061371a600083612a34565b91506137258261370a565b600082019050919050565b6000610140820190506137466000830185612feb565b61375360a0830184613071565b8181036101208301526137658161370d565b90509392505050565b61377781612871565b811461378257600080fd5b50565b6000815190506137948161376e565b92915050565b6000602082840312156137b0576137af6126fc565b5b60006137be84828501613785565b91505092915050565b7f61667465722e6d6f646966790000000000000000000000000000000000000000600082015250565b60006137fd600c83612675565b9150613808826137c7565b602082019050919050565b6000606082019050818103600083015261382c816137f0565b905061383b602083018561287b565b613848604083018461287b565b9392505050565b7f4e487b7100000000000000000000000000000000000000000000000000000000600052601160045260246000fd5b600061388982612871565b91507f800000000000000000000000000000000000000000000000000000000000000082036138bb576138ba61384f565b5b816000039050919050565b7f746f6b656e300000000000000000000000000000000000000000000000000000600082015250565b60006138fc600683612675565b9150613907826138c6565b602082019050919050565b6000604082019050818103600083015261392b816138ef565b905061393a6020830184612dfd565b92915050565b7f7430207472616e736665722d3e504d206661696c656400000000000000000000600082015250565b6000613976601683612675565b915061398182613940565b602082019050919050565b600060208201905081810360008301526139a581613969565b9050919050565b7f746f6b656e310000000000000000000000000000000000000000000000000000600082015250565b60006139e2600683612675565b91506139ed826139ac565b602082019050919050565b60006040820190508181036000830152613a11816139d5565b9050613a206020830184612dfd565b92915050565b7f7431207472616e736665722d3e504d206661696c656400000000000000000000600082015250565b6000613a5c601683612675565b9150613a6782613a26565b602082019050919050565b60006020820190508181036000830152613a8b81613a4f565b9050919050565b6000606082019050613aa76000830186612923565b613ab46020830185612b8d565b613ac16040830184612dfd565b949350505050565b7f756e6c6f636b2e65786974000000000000000000000000000000000000000000600082015250565b6000613aff600b83612675565b9150613b0a82613ac9565b602082019050919050565b60006020820190508181036000830152613b2e81613af2565b9050919050565b7f6c697175696469747944656c7461206d757374206265203c2030000000000000600082015250565b6000613b6b601a83612675565b9150613b7682613b35565b602082019050919050565b60006020820190508181036000830152613b9a81613b5e565b9050919050565b7f73656e6420574152530000000000000000000000000000000000000000000000600082015250565b6000613bd7600983612675565b9150613be282613ba1565b602082019050919050565b60006020820190508181036000830152613c0681613bca565b9050919050565b7f73656e6420555344436500000000000000000000000000000000000000000000600082015250565b6000613c43600a83612675565b9150613c4e82613c0d565b602082019050919050565b60006020820190508181036000830152613c7281613c36565b9050919050565b82818337600083830152505050565b6000613c948385612a34565b9350613ca1838584613c79565b613caa83612a6f565b840190509392505050565b60006020820190508181036000830152613cd0818486613c88565b90509392505050565b6000602082019050613cee600083018461287b565b92915050565b7f4e487b7100000000000000000000000000000000000000000000000000000000600052605160045260246000fdfe6c6f636b4163717569726564202d3e20756e6c6f636b43616c6c6261636b20616c696173a26469706673582212200c357a8922e2724e941b2a65ed70b1a54797a02c0aa69b985241e6574ee417eb64736f6c63430008180033",
  "linkReferences": {},
  "deployedLinkReferences": {}
}