{
  "_format": "hh-sol-artifact-1",
  "contractName": "SimpleV4Router",
  "sourceName": "contracts/SimpleV4Router.sol",
  "abi": [
    {
      "inputs": [
        {
          "internalType": "address",
          "name": "_pm",
          "type": "address"
        },
        {
          "internalType": "address",
          "name": "_wars",
          "type": "address"
        },
        {
          "internalType": "address",
          "name": "_usdce",
          "type": "address"
        }
      ],
      "stateMutability": "nonpayable",
      "type": "constructor"
    },
    {
      "inputs": [],
      "name": "FEE",
      "outputs": [
        {
          "internalType": "uint24",
          "name": "",
          "type": "uint24"
        }
      ],
      "stateMutability": "view",
      "type": "function"
    },
    {
      "inputs": [],
      "name": "HOOKS",
      "outputs": [
        {
          "internalType": "address",
          "name": "",
          "type": "address"
        }
      ],
      "stateMutability": "view",
      "type": "function"
    },
    {
      "inputs": [],
      "name": "TICK_SPACING",
      "outputs": [
        {
          "internalType": "int24",
          "name": "",
          "type": "int24"
        }
      ],
      "stateMutability": "view",
      "type": "function"
    },
    {
      "inputs": [],
      "name": "USDCe",
      "outputs": [
        {
          "internalType": "address",
          "name": "",
          "type": "address"
        }
      ],
      "stateMutability": "view",
      "type": "function"
    },
    {
      "inputs": [],
      "name": "WARS",
      "outputs": [
        {
          "internalType": "address",
          "name": "",
          "type": "address"
        }
      ],
      "stateMutability": "view",
      "type": "function"
    },
    {
      "inputs": [],
      "name": "poolManager",
      "outputs": [
        {
          "internalType": "address",
          "name": "",
          "type": "address"
        }
      ],
      "stateMutability": "view",
      "type": "function"
    },
    {
      "inputs": [
        {
          "internalType": "uint256",
          "name": "amountIn",
          "type": "uint256"
        }
      ],
      "name": "swapExactInWARSForUSDCe",
      "outputs": [
        {
          "internalType": "int256",
          "name": "delta0",
          "type": "int256"
        },
        {
          "internalType": "int256",
          "name": "delta1",
          "type": "int256"
        }
      ],
      "stateMutability": "nonpayable",
      "type": "function"
    }
  ],
  "bytecode": "0x60e060405234801561001057600080fd5b50604051610d92380380610d9283398181016040528101906100329190610139565b8273ffffffffffffffffffffffffffffffffffffffff1660808173ffffffffffffffffffffffffffffffffffffffff16815250508173ffffffffffffffffffffffffffffffffffffffff1660a08173ffffffffffffffffffffffffffffffffffffffff16815250508073ffffffffffffffffffffffffffffffffffffffff1660c08173ffffffffffffffffffffffffffffffffffffffff168152505050505061018c565b600080fd5b600073ffffffffffffffffffffffffffffffffffffffff82169050919050565b6000610106826100db565b9050919050565b610116816100fb565b811461012157600080fd5b50565b6000815190506101338161010d565b92915050565b600080600060608486031215610152576101516100d6565b5b600061016086828701610124565b935050602061017186828701610124565b925050604061018286828701610124565b9150509250925092565b60805160a05160c051610b9f6101f3600039600081816101920152818161020f015261037001526000818161016e015281816101ee0152818161023b0152818161028c01526103960152600081816101bc015281816103d301526105450152610b9f6000f3fe608060405234801561001057600080fd5b506004361061007d5760003560e01c8063c57981b51161005b578063c57981b5146100dc578063dc4c90d3146100fa578063dce1561d14610118578063ec9e6a0a146101365761007d565b806346ca626b146100825780635de1cf75146100a05780638a4d786b146100be575b600080fd5b61008a610167565b604051610097919061065f565b60405180910390f35b6100a861016c565b6040516100b591906106bb565b60405180910390f35b6100c6610190565b6040516100d391906106bb565b60405180910390f35b6100e46101b4565b6040516100f191906106f4565b60405180910390f35b6101026101ba565b60405161010f91906106bb565b60405180910390f35b6101206101de565b60405161012d91906106bb565b60405180910390f35b610150600480360381019061014b919061074a565b6101e3565b60405161015e929190610790565b60405180910390f35b603c81565b7f000000000000000000000000000000000000000000000000000000000000000081565b7f000000000000000000000000000000000000000000000000000000000000000081565b610bb881565b7f000000000000000000000000000000000000000000000000000000000000000081565b600081565b6000806000806102337f00000000000000000000000000000000000000000000000000000000000000007f00000000000000000000000000000000000000000000000000000000000000006105f4565b9150915060007f000000000000000000000000000000000000000000000000000000000000000073ffffffffffffffffffffffffffffffffffffffff168373ffffffffffffffffffffffffffffffffffffffff161490507f000000000000000000000000000000000000000000000000000000000000000073ffffffffffffffffffffffffffffffffffffffff166323b872dd3330896040518463ffffffff1660e01b81526004016102e7939291906107c8565b6020604051808303816000875af1158015610306573d6000803e3d6000fd5b505050506040513d601f19601f8201168201806040525081019061032a9190610837565b610369576040517f08c379a0000000000000000000000000000000000000000000000000000000008152600401610360906108c1565b60405180910390fd5b80610394577f00000000000000000000000000000000000000000000000000000000000000006103b6565b7f00000000000000000000000000000000000000000000000000000000000000005b73ffffffffffffffffffffffffffffffffffffffff1663095ea7b37f0000000000000000000000000000000000000000000000000000000000000000886040518363ffffffff1660e01b81526004016104109291906108e1565b6020604051808303816000875af115801561042f573d6000803e3d6000fd5b505050506040513d601f19601f820116820180604052508101906104539190610837565b610492576040517f08c379a000000000000000000000000000000000000000000000000000000000815260040161048990610956565b60405180910390fd5b60006040518060a001604052808573ffffffffffffffffffffffffffffffffffffffff1681526020018473ffffffffffffffffffffffffffffffffffffffff168152602001610bb862ffffff168152602001603c60020b8152602001600073ffffffffffffffffffffffffffffffffffffffff168152509050600060405180606001604052808415158152602001898152602001600073ffffffffffffffffffffffffffffffffffffffff1681525090507f000000000000000000000000000000000000000000000000000000000000000073ffffffffffffffffffffffffffffffffffffffff1663d536aa053084846040518463ffffffff1660e01b81526004016105a093929190610ab1565b60408051808303816000875af11580156105be573d6000803e3d6000fd5b505050506040513d601f19601f820116820180604052508101906105e29190610b29565b80975081985050505050505050915091565b6000808273ffffffffffffffffffffffffffffffffffffffff168473ffffffffffffffffffffffffffffffffffffffff1610610631578284610634565b83835b80925081935050509250929050565b60008160020b9050919050565b61065981610643565b82525050565b60006020820190506106746000830184610650565b92915050565b600073ffffffffffffffffffffffffffffffffffffffff82169050919050565b60006106a58261067a565b9050919050565b6106b58161069a565b82525050565b60006020820190506106d060008301846106ac565b92915050565b600062ffffff82169050919050565b6106ee816106d6565b82525050565b600060208201905061070960008301846106e5565b92915050565b600080fd5b6000819050919050565b61072781610714565b811461073257600080fd5b50565b6000813590506107448161071e565b92915050565b6000602082840312156107605761075f61070f565b5b600061076e84828501610735565b91505092915050565b6000819050919050565b61078a81610777565b82525050565b60006040820190506107a56000830185610781565b6107b26020830184610781565b9392505050565b6107c281610714565b82525050565b60006060820190506107dd60008301866106ac565b6107ea60208301856106ac565b6107f760408301846107b9565b949350505050565b60008115159050919050565b610814816107ff565b811461081f57600080fd5b50565b6000815190506108318161080b565b92915050565b60006020828403121561084d5761084c61070f565b5b600061085b84828501610822565b91505092915050565b600082825260208201905092915050565b7f7472616e7366657246726f6d206661696c656400000000000000000000000000600082015250565b60006108ab601383610864565b91506108b682610875565b602082019050919050565b600060208201905081810360008301526108da8161089e565b9050919050565b60006040820190506108f660008301856106ac565b61090360208301846107b9565b9392505050565b7f617070726f7665206661696c6564000000000000000000000000000000000000600082015250565b6000610940600e83610864565b915061094b8261090a565b602082019050919050565b6000602082019050818103600083015261096f81610933565b9050919050565b61097f8161069a565b82525050565b61098e816106d6565b82525050565b61099d81610643565b82525050565b60a0820160008201516109b96000850182610976565b5060208201516109cc6020850182610976565b5060408201516109df6040850182610985565b5060608201516109f26060850182610994565b506080820151610a056080850182610976565b50505050565b610a14816107ff565b82525050565b610a2381610777565b82525050565b610a328161067a565b82525050565b606082016000820151610a4e6000850182610a0b565b506020820151610a616020850182610a1a565b506040820151610a746040850182610a29565b50505050565b600082825260208201905092915050565b50565b6000610a9b600083610a7a565b9150610aa682610a8b565b600082019050919050565b600061014082019050610ac760008301866106ac565b610ad460208301856109a3565b610ae160c0830184610a38565b818103610120830152610af381610a8e565b9050949350505050565b610b0681610777565b8114610b1157600080fd5b50565b600081519050610b2381610afd565b92915050565b60008060408385031215610b4057610b3f61070f565b5b6000610b4e85828601610b14565b9250506020610b5f85828601610b14565b915050925092905056fea2646970667358221220053d48a5ba07475c47f341c29c59efd85f3ddfb0dbf9d5dc1d636ba71e7dc8fb64736f6c63430008180033",
  "linkReferences": {},
  "deployedLinkReferences": {}
}