{
  "_format": "hh-sol-artifact-1",
  "contractName": "PMProbe",
  "sourceName": "contracts/PMProbe.sol",
  "abi": [
    {
      "inputs": [
        {
          "internalType": "address",
          "name": "_pm",
          "type": "address"
        }
      ],
      "stateMutability": "nonpayable",
      "type": "constructor"
    },
    {
      "anonymous": false,
      "inputs": [
        {
          "indexed": false,
          "internalType": "string",
          "name": "t",
          "type": "string"
        }
      ],
      "name": "Tag",
      "type": "event"
    },
    {
      "stateMutability": "payable",
      "type": "fallback"
    },
    {
      "inputs": [],
      "name": "goLock",
      "outputs": [],
      "stateMutability": "nonpayable",
      "type": "function"
    },
    {
      "inputs": [],
      "name": "goUnlock",
      "outputs": [],
      "stateMutability": "nonpayable",
      "type": "function"
    },
    {
      "inputs": [
        {
          "internalType": "bytes",
          "name": "data",
          "type": "bytes"
        }
      ],
      "name": "lockAcquired",
      "outputs": [
        {
          "internalType": "bytes",
          "name": "",
          "type": "bytes"
        }
      ],
      "stateMutability": "nonpayable",
      "type": "function"
    },
    {
      "inputs": [],
      "name": "pm",
      "outputs": [
        {
          "internalType": "address",
          "name": "",
          "type": "address"
        }
      ],
      "stateMutability": "view",
      "type": "function"
    },
    {
      "inputs": [
        {
          "internalType": "bytes",
          "name": "data",
          "type": "bytes"
        }
      ],
      "name": "unlockCallback",
      "outputs": [
        {
          "internalType": "bytes",
          "name": "",
          "type": "bytes"
        }
      ],
      "stateMutability": "nonpayable",
      "type": "function"
    },
    {
      "stateMutability": "payable",
      "type": "receive"
    }
  ],
  "bytecode": "0x60a06040523480156200001157600080fd5b50604051620010fd380380620010fd8339818101604052810190620000379190620000dc565b8073ffffffffffffffffffffffffffffffffffffffff1660808173ffffffffffffffffffffffffffffffffffffffff1681525050506200010e565b600080fd5b600073ffffffffffffffffffffffffffffffffffffffff82169050919050565b6000620000a48262000077565b9050919050565b620000b68162000097565b8114620000c257600080fd5b50565b600081519050620000d681620000ab565b92915050565b600060208284031215620000f557620000f462000072565b5b60006200010584828501620000c5565b91505092915050565b608051610fb762000146600039600081816102b4015281816103c9015281816103ef0152818161053f01526107000152610fb76000f3fe60806040526004361061004e5760003560e01c80637ff8c1be146100d35780638970cdff146100ea57806391dd734614610115578063ab6291fe14610152578063b78b10751461018f57610093565b36610093576100916040518060400160405280600d81526020017f70726f62652e72656365697665000000000000000000000000000000000000008152506101a6565b005b6100d16040518060400160405280600e81526020017f70726f62652e66616c6c6261636b0000000000000000000000000000000000008152506101a6565b005b3480156100df57600080fd5b506100e861023f565b005b3480156100f657600080fd5b506100ff6103c7565b60405161010c91906108a4565b60405180910390f35b34801561012157600080fd5b5061013c60048036038101906101379190610938565b6103eb565b6040516101499190610a15565b60405180910390f35b34801561015e57600080fd5b5061017960048036038101906101749190610938565b61053b565b6040516101869190610a15565b60405180910390f35b34801561019b57600080fd5b506101a461068b565b005b61023c816040516024016101ba9190610a8c565b6040516020818303038152906040527f41304fac000000000000000000000000000000000000000000000000000000007bffffffffffffffffffffffffffffffffffffffffffffffffffffffff19166020820180517bffffffffffffffffffffffffffffffffffffffffffffffffffffffff8381831617835250505050610813565b50565b61027d6040518060400160405280601381526020017f70726f62652e6265666f726520756e6c6f636b000000000000000000000000008152506101a6565b7f749a69b6aa041ea7e20cc16ccf0bd5601eaf0461f56f07a2830581191569ed4e6040516102aa90610afa565b60405180910390a17f000000000000000000000000000000000000000000000000000000000000000073ffffffffffffffffffffffffffffffffffffffff166348c894916040518163ffffffff1660e01b815260040161030990610b40565b6000604051808303816000875af1158015610328573d6000803e3d6000fd5b505050506040513d6000823e3d601f19601f820116820180604052508101906103519190610c81565b507f749a69b6aa041ea7e20cc16ccf0bd5601eaf0461f56f07a2830581191569ed4e60405161037f90610d16565b60405180910390a16103c56040518060400160405280601281526020017f70726f62652e616674657220756e6c6f636b00000000000000000000000000008152506101a6565b565b7f000000000000000000000000000000000000000000000000000000000000000081565b60607f000000000000000000000000000000000000000000000000000000000000000073ffffffffffffffffffffffffffffffffffffffff163373ffffffffffffffffffffffffffffffffffffffff161461047b576040517f08c379a000000000000000000000000000000000000000000000000000000000815260040161047290610d82565b60405180910390fd5b6104b96040518060400160405280601881526020017f70726f62652e756e6c6f636b43616c6c6261636b2068697400000000000000008152506101a6565b7f749a69b6aa041ea7e20cc16ccf0bd5601eaf0461f56f07a2830581191569ed4e6040516104e690610dee565b60405180910390a182828080601f016020809104026020016040519081016040528093929190818152602001838380828437600081840152601f19601f82011690508083019250505050505050905092915050565b60607f000000000000000000000000000000000000000000000000000000000000000073ffffffffffffffffffffffffffffffffffffffff163373ffffffffffffffffffffffffffffffffffffffff16146105cb576040517f08c379a00000000000000000000000000000000000000000000000000000000081526004016105c290610d82565b60405180910390fd5b6106096040518060400160405280601681526020017f70726f62652e6c6f636b416371756972656420686974000000000000000000008152506101a6565b7f749a69b6aa041ea7e20cc16ccf0bd5601eaf0461f56f07a2830581191569ed4e60405161063690610e5a565b60405180910390a182828080601f016020809104026020016040519081016040528093929190818152602001838380828437600081840152601f19601f82011690508083019250505050505050905092915050565b6106c96040518060400160405280601181526020017f70726f62652e6265666f7265206c6f636b0000000000000000000000000000008152506101a6565b7f749a69b6aa041ea7e20cc16ccf0bd5601eaf0461f56f07a2830581191569ed4e6040516106f690610ec6565b60405180910390a17f000000000000000000000000000000000000000000000000000000000000000073ffffffffffffffffffffffffffffffffffffffff1663815483196040518163ffffffff1660e01b815260040161075590610b40565b6000604051808303816000875af1158015610774573d6000803e3d6000fd5b505050506040513d6000823e3d601f19601f8201168201806040525081019061079d9190610c81565b507f749a69b6aa041ea7e20cc16ccf0bd5601eaf0461f56f07a2830581191569ed4e6040516107cb90610f32565b60405180910390a16108116040518060400160405280601081526020017f70726f62652e6166746572206c6f636b000000000000000000000000000000008152506101a6565b565b61082a8161082261082d61084e565b63ffffffff16565b50565b60006a636f6e736f6c652e6c6f679050600080835160208501845afa505050565b610859819050919050565b610861610f52565b565b600073ffffffffffffffffffffffffffffffffffffffff82169050919050565b600061088e82610863565b9050919050565b61089e81610883565b82525050565b60006020820190506108b96000830184610895565b92915050565b6000604051905090565b600080fd5b600080fd5b600080fd5b600080fd5b600080fd5b60008083601f8401126108f8576108f76108d3565b5b8235905067ffffffffffffffff811115610915576109146108d8565b5b602083019150836001820283011115610931576109306108dd565b5b9250929050565b6000806020838503121561094f5761094e6108c9565b5b600083013567ffffffffffffffff81111561096d5761096c6108ce565b5b610979858286016108e2565b92509250509250929050565b600081519050919050565b600082825260208201905092915050565b60005b838110156109bf5780820151818401526020810190506109a4565b60008484015250505050565b6000601f19601f8301169050919050565b60006109e782610985565b6109f18185610990565b9350610a018185602086016109a1565b610a0a816109cb565b840191505092915050565b60006020820190508181036000830152610a2f81846109dc565b905092915050565b600081519050919050565b600082825260208201905092915050565b6000610a5e82610a37565b610a688185610a42565b9350610a788185602086016109a1565b610a81816109cb565b840191505092915050565b60006020820190508181036000830152610aa68184610a53565b905092915050565b7f6265666f72652e756e6c6f636b00000000000000000000000000000000000000600082015250565b6000610ae4600d83610a42565b9150610aef82610aae565b602082019050919050565b60006020820190508181036000830152610b1381610ad7565b9050919050565b50565b6000610b2a600083610990565b9150610b3582610b1a565b600082019050919050565b60006020820190508181036000830152610b5981610b1d565b9050919050565b600080fd5b7f4e487b7100000000000000000000000000000000000000000000000000000000600052604160045260246000fd5b610b9d826109cb565b810181811067ffffffffffffffff82111715610bbc57610bbb610b65565b5b80604052505050565b6000610bcf6108bf565b9050610bdb8282610b94565b919050565b600067ffffffffffffffff821115610bfb57610bfa610b65565b5b610c04826109cb565b9050602081019050919050565b6000610c24610c1f84610be0565b610bc5565b905082815260208101848484011115610c4057610c3f610b60565b5b610c4b8482856109a1565b509392505050565b600082601f830112610c6857610c676108d3565b5b8151610c78848260208601610c11565b91505092915050565b600060208284031215610c9757610c966108c9565b5b600082015167ffffffffffffffff811115610cb557610cb46108ce565b5b610cc184828501610c53565b91505092915050565b7f61667465722e756e6c6f636b0000000000000000000000000000000000000000600082015250565b6000610d00600c83610a42565b9150610d0b82610cca565b602082019050919050565b60006020820190508181036000830152610d2f81610cf3565b9050919050565b7f6f6e6c7920504d00000000000000000000000000000000000000000000000000600082015250565b6000610d6c600783610a42565b9150610d7782610d36565b602082019050919050565b60006020820190508181036000830152610d9b81610d5f565b9050919050565b7f63622e756e6c6f636b43616c6c6261636b000000000000000000000000000000600082015250565b6000610dd8601183610a42565b9150610de382610da2565b602082019050919050565b60006020820190508181036000830152610e0781610dcb565b9050919050565b7f63622e6c6f636b41637175697265640000000000000000000000000000000000600082015250565b6000610e44600f83610a42565b9150610e4f82610e0e565b602082019050919050565b60006020820190508181036000830152610e7381610e37565b9050919050565b7f6265666f72652e6c6f636b000000000000000000000000000000000000000000600082015250565b6000610eb0600b83610a42565b9150610ebb82610e7a565b602082019050919050565b60006020820190508181036000830152610edf81610ea3565b9050919050565b7f61667465722e6c6f636b00000000000000000000000000000000000000000000600082015250565b6000610f1c600a83610a42565b9150610f2782610ee6565b602082019050919050565b60006020820190508181036000830152610f4b81610f0f565b9050919050565b7f4e487b7100000000000000000000000000000000000000000000000000000000600052605160045260246000fdfea2646970667358221220a5010926fa1da6ca53832d0e6bcc64808472a492cb30f0421e9a407f74f75fae64736f6c63430008180033",
  "linkReferences": {},
  "deployedLinkReferences": {}
}